:0300000002049B5C
:0C049B00787FE4F6D8FD75810702042D7F
:0404B70053D9BF2234
:0704B00075A40775E240226C
:0404BB0075B2822272
:0904A7001204B71204B00204BBF8
:10047D007F887E1312048F7F887E1312048F7F88EE
:02048D007E13DC
:0C048F00EF4E6007EF1F70F81E80F52292
:10042D001204A77FE87E0312048F1203B01203B0EB
:10043D0012047D20840D7FE87E0312048F20840337
:08044D001203B012047D80EBE4
:1000030000700000006F0000006E0000006D000033
:10001300006C0000006B0000006A00000069002112
:10002300006800000067000000663F800065001163
:1000330000640000006300000062020000610888A1
:1000430000600000005F0000005E0000005D000033
:10005300005C0000005B0000005A00000059000033
:100063000058000000570000005600000055D30060
:10007300005400010053000000521E000051000014
:1000830000506666004F0026004E0003004D00003E
:10009300004C000C004B0800004A00000049003FE0
:1000A30000480001004700810046C350004500009E
:1000B300004403E800430000004201F40041000053
:1000C30000401388003F0000003E0322003D00A8CB
:1000D300003C0018003B0001003A80010039002079
:1000E3000038000000370000003600000035000033
:1000F30000340820003300800032000000314180CA
:1001030000300300002F0300002E07FD002DC8DF81
:10011300002C02A3002B0226002A00000029000065
:1001230000280000002703E800260000002504043F
:1001330000240026002300040022000000211E21C9
:1001430000200393001F03EC001E318C001D318C33
:10015300001C0488001B0002001A0DB000190624BD
:100163000018071A0017007C00160001001504018F
:100173000014F048001327B7001200640011012C8B
:1001830000100080000F064F000E1E70000D40008F
:10019300000C5001000B0018000A10D800091604C7
:1001A30000082000000740B20006C802000500C88E
:1001B30000040A4300030642000205000001080888
:0401C3000000249480
:0904550012045ED2817F017E00D9
:10045E00EF1FAA0670011E4A60147C007D0AD3EDC0
:0E046E009400EC940040E9ED1D70F31C80F04A
:01047C00225D
:0602DC007E247D007C0081
:0602E2009001C51202D0DC
:1002E800E4FB9001C9F0F9A3F0A3F0A3F0A3F09008
:1002F80001C5E0FCA3E0FDA3E0FEA3E0FF78101237
:1003080002BDA9079001C5E0FCA3E0FDA3E0FEA3A0
:10031800E0FF9001CAEEF0A3EFF0C281D2837F0222
:100328007E0012045EC2837F027E0012045EE954DE
:10033800809001C9F0E0C41313135401F024FF9214
:10034800827F017E00120455C281E925E0F912047A
:100358005A0BEBB408D8E4FB9001CAE05480A3A37D
:10036800F0A3E4F09001CCE0C413131354017E0011
:100378005401FFEEF0A3EFF024FF92827F011204F4
:1003880055C2819001CBE025E0F09001CAE033F03E
:1003980012045A0BEBB410C07F027E0012045ED226
:0803A800837F027E0002045E67
:1003B00078007C007D017BFF7A0079037E017FC499
:1003C000120297E49001C4F07F967E24FDFC120295
:1003D000E27F941202DCE49001C4F09001C4E0FFDB
:1003E000C3648094F15036EF3395E0FEC374709F80
:1003F000FFE49EFEEF7802C333CE33CED8F924005B
:10040000F58274003EF583E0FCA3E0FDA3E0FEA3CB
:10041000E0FF1202E29001C4E004F080BE7F9C1273
:0D04200002DC7F9C7E247D007C000202E255
:1001C700E709F608DFFA8046E709F208DFFA803E1A
:1001D70088828C83E709F0A3DFFA8032E309F60807
:1001E700DFFA8078E309F208DFFA807088828C836F
:1001F700E309F0A3DFFA806489828A83E0A3F60823
:10020700DFFA805889828A83E0A3F208DFFA804CFC
:1002170080D280FA80C680D4806980F280338010D3
:1002270080A680EA809A80A880DA80E280CA80333C
:1002370089828A83ECFAE493A3C8C582C8CCC583B4
:10024700CCF0A3C8C582C8CCC583CCDFE9DEE78084
:100257000D89828A83E493A3F608DFF9ECFAA9F003
:10026700EDFB2289828A83ECFAE0A3C8C582C8CC59
:10027700C583CCF0A3C8C582C8CCC583CCDFEADE72
:10028700E880DB89828A83E493A3F208DFF980CCD4
:1002970088F0EF60010E4E60C388F0ED2402B404CD
:1002A7000050B9F582EB2402B4040050AF23234574
:0602B70082239002177380
:1002BD00E8600FECC313FCED13FDEE13FEEF13FF1F
:0302CD00D8F12243
:0C02D000ECF0A3EDF0A3EEF0A3EFF022A1
:00000001FF
