:020000040800F2
:1000000090090020A90E0008250600082706000810
:100010002B0600082F060008330600080000000029
:10002000000000000000000000000000370600088B
:1000300039060008000000003B0600083D060008E5
:10004000C30E0008C30E0008C30E0008C30E00084C
:10005000C30E0008C30E0008C30E0008C30E00083C
:10006000C30E0008C30E0008C30E0008C30E00082C
:10007000C30E0008C30E0008C30E0008C30E00081C
:10008000C30E0008C30E0008C30E0008C30E00080C
:10009000C30E0008C30E0008C30E0008C30E0008FC
:1000A000C30E0008C30E0008C30E0008C30E0008EC
:1000B000C30E0008C30E0008C30E0008C30E0008DC
:1000C000C30E0008C30E0008C30E0008C30E0008CC
:1000D000C30E0008630E0008C30E0008C30E00081C
:1000E000C30E0008C30E0008C30E0008C30E0008AC
:1000F000C30E0008C30E0008C30E0008C30E00089C
:10010000C30E0008C30E0008C30E0008C30E00088B
:10011000C30E0008C30E0008C30E0008C30E00087B
:10012000C30E0008C30E0008C30E0008C30E00086B
:1001300000F002F800F05AF80AA090E8000C82449F
:100140008344AAF10107DA4501D100F04FF8AFF27C
:10015000090EBAE80F0013F0010F18BFFB1A43F0A5
:1001600001031847DC1C0000FC1C00000A444FF08F
:10017000000C10F8013B13F0070408BF10F8014B06
:100180001D1108BF10F8015B641E05D010F8016B4B
:10019000641E01F8016BF9D113F0080F1EBF10F8AF
:1001A000014BAD1C0C1B09D16D1E58BF01F801CBD2
:1001B000FAD505E014F8016B01F8016B6D1EF9D555
:1001C0009142D6D37047000000230024002500266A
:1001D000103A28BF78C1FBD8520728BF30C148BFAA
:1001E0000B6070471FB51FBD10B510BD01F0F9FDC4
:1001F0001146FFF7F7FF00F009F901F017FE03B40D
:10020000FFF7F2FF03BC00F0CFFD0000F6480068E6
:10021000012806D1F548006840F00100F349086064
:1002200005E0F248007800F0FE00F0490860F04870
:100230000068012806D1ED48006840F00200EB4953
:10024000086005E0E948007800F0FD00E749086033
:10025000E748001F0068012806D1E448006840F024
:100260000400E249086005E0E048007800F0FB0087
:10027000DE490860DE4808380068012806D1DB48FE
:10028000006840F00800D949086005E0D7480078C8
:1002900000F0F700D5490860D5480C3800680128FF
:1002A00006D1D248006840F01000D049086005E04F
:1002B000CE48007800F0EF00CC490860CC481038F8
:1002C0000068012806D1C948006840F02000C749ED
:1002D000086005E0C548007800F0DF00C349086009
:1002E000C4480068012806D1C048006840F04000BA
:1002F000BE49086005E0BD48007800F0BF00BB497A
:100300000860BA480078BC4948707047B648083859
:100310000068012806D1B948006840F00100B749DB
:10032000086005E0B548007800F0FE00B3490860B9
:10033000AD480C380068012806D1B048006840F08C
:100340000200AE49086005E0AC48007800F0FD000E
:10035000AA490860A44810380068012806D1A748B7
:10036000006840F00400A549086005E0A348007853
:1003700000F0FB00A1490860A1480068012806D1EF
:100380009E48006840F008009C49086005E09B48D2
:10039000007800F0F700994908609948001F00684C
:1003A000012806D19548006840F010009349086084
:1003B00005E09248007800F0EF009049086070472F
:1003C0008F480C380068012802D18E49086018E077
:1003D0008B4810380068012807D10220894908603D
:1003E000002081495C3108600BE07F4814380068C8
:1003F000012806D104208349086001207A495C3134
:100400000860804800787C4988707047002400F0BC
:100410005BFC00F0C3FC642000F093FC00F000FAE9
:1004200000F064FA00F0B6FA00F0E7FB00F09AFB87
:1004300041F2883000F0CEFA382000F013FCD1E011
:100440006B480830006801280DD00A2000F079FCC4
:10045000674808300068012805D000F083FB4FF49E
:10046000FA7000F06EFCFFF7D1FEFFF74FFFFFF7C9
:10047000A7FF6248006864490968884250D05F4815
:100480000068142802D914205C4908605B480068A1
:10049000412101EB500000F510105C49C1F830011A
:1004A0005648007800F0010018B15948C1F814010D
:1004B00004E04FF42C105549C1F814015349D1F808
:1004C000300100F0EBFA5149D1F8140100F0E6FADE
:1004D00042F29C4000F0E2FA42F29C4000F0DEFA68
:1004E00000240FE00020424998310860642000F0A9
:1004F00028FC01204749C1F8BC01642000F021FC20
:10050000601C44B2042CEDDB0120394998310860AD
:1005100044F6206000F05EFA384800683A49086006
:10052000324800683C490968884201D0012000E057
:10053000002034490968394A1268914201D00121EA
:1005400000E00021084308B300F099FB00240FE00D
:100550000020254960310860642000F0F2FB012092
:100560002F49C1F89801642000F0EBFB601C44B2F5
:10057000042CEDDB01201C49603108601B48006839
:10058000254908601F480068244908601C48243831
:10059000006801281FD116482438006801281AD1A4
:1005A000134820380068012815D10F481C3800680E
:1005B000012810D10E480830006801280BD10A48E4
:1005C000001D0068012806D10D49783108601149E5
:1005D000C1F8B80106E000200949783108600D49EA
:1005E000C1F8B8012CE700003801224200000020C9
:1005F00024812142088122421C00002008000020A2
:1006000030012142100000200C00002038000020A2
:10061000F4012B000080214204000020140000207F
:1006200000002242704700BFFEE700BFFEE700BFA8
:10063000FEE700BFFEE77047704770477047000055
:100640000CB50020019000906C48006840F48030A8
:100650006A49086000BF6948006800F400300090F3
:100660000198401C0190009818B90198B0F5A06F4E
:10067000F1D16248006800F4003010B10120009010
:1006800001E0002000900098012843D15C480068F8
:1006900040F010005A4908600846006820F0030046
:1006A00008600846006840F002000860534840684F
:1006B000524948600846406848600846406840F42F
:1006C000806048600846406820F47C104860084616
:1006D000406840F4E81048600846006840F08070C8
:1006E000086000BF4548006800F000700028F9D09D
:1006F0004248406820F0030040494860084640688E
:1007000040F00200486000BF3C48406800F00C0028
:100710000828F9D10CBD10B5FFF792FF10BD10B538
:100720003648006840F001003449086008464068D7
:100730003449084031494860084600683249084059
:100740002E4908600846006820F4802008600846AA
:10075000406820F4FE0048604FF41F008860FFF7F7
:10076000DAFF4FF000602949086010BD10B5002184
:1007700000200022214B5B6803F00C0121B1042909
:1007800006D0082928D107E0214B224C236027E01E
:100790001F4B204C236023E0184B5B6803F4701060
:1007A000164B5B6803F48032022303EB904022B9BE
:1007B000194B4343174C23600DE0104B5B6803F467
:1007C000003323B1144B4343124C236003E0104B1E
:1007D0004343104C236003E00D4B0E4C236000BFDD
:1007E00000BF064B5B68C3F303130C4CE15C094B81
:1007F0001B68CB40074C236010BD00000010024076
:10080000002002400000FFF8FFFFF6FE08ED00E0C8
:1008100000127A002400002000093D00280000207A
:1008200008B501211C2000F07BFE4FF44040ADF8DC
:10083000000010208DF8030003208DF802006946A7
:10084000234800F0B1FB6020ADF8000010208DF8C7
:10085000030003208DF8020069461E4800F0A4FB47
:100860000820ADF8000028208DF8030003208DF843
:1008700002006946184800F097FB40F60300ADF807
:10088000000028208DF8030003208DF8020069463F
:100890000F4800F089FB48F28000ADF800002820E6
:1008A0008DF8030003208DF802006946094800F026
:1008B0007BFB00200949086001200949C1F8BC01FF
:1008C0000849086000200849C1F8940108BD0000EB
:1008D000000C01400010014000080140B881214295
:1008E00000802142980122420000224208B50121E5
:1008F0003C2000F015FE4FF4D850ADF80000282041
:100900008DF8030003208DF8020069461D4800F0B1
:100910004BFB4FF48060ADF8000010208DF8030011
:1009200003208DF802006946164800F03DFB4FF4A5
:100930007870ADF8000028208DF8030003208DF8B2
:1009400002006946104800F02FFB4FF4BE40ADF89E
:10095000000028208DF8030003208DF8020069466E
:100960000A4800F021FB0420ADF8000028208DF893
:10097000030003208DF802006946054800F014FBCF
:1009800008BD000000080140000C014000100140BB
:100990000014014008B50121082000F0C1FD4FF40A
:1009A0005050ADF8000010208DF8030003208DF8A2
:1009B000020069467B4800F0F7FA08BD014604E0F2
:1009C0000A2000E0401E0028FCD10A00A1F101012C
:1009D000F6D1704700E0401E0028FCD170472DE999
:1009E000F04305460E4600240027374600206E4996
:1009F000086001206D49C1F8A8010220FFF7DEFF61
:100A0000002069490C3908600220FFF7D7FF00BFBA
:100A100019E005F080084FEAD8186448C0F8B081A2
:100A20000120FFF7CBFF01205F490860FFF7C6FFF9
:100A300000205E49C1F8B4016806050E0120FFF7E9
:100A4000BDFF601CC4B2082CE3DB002418E007F4EF
:100A500000494FEAD9395548C0F8B0910120FFF755
:100A6000ADFF012050490860FFF7A8FF00204F4963
:100A7000C1F8B4017F000120FFF7A0FF601CC4B2E1
:100A8000102CE4DB0220FFF799FF012046490C39C6
:100A900008600220FFF792FFBDE8F0832DE9F043E4
:100AA0000546002400260027A046A146C5F30747B7
:100AB0001FFA85F800203C49086001203B49C1F835
:100AC000A8010220FFF77AFF002037490C3908609F
:100AD0000220FFF773FF00BF18E007F08006F60959
:100AE0003148001F06600120FFF768FF01202F49F1
:100AF000C1F8B401FFF762FF00202B4908607806B7
:100B0000070E0120FFF75AFF601CC4B2082CE4DB7B
:100B1000002419E008F400494FEAD9392348C0F805
:100B2000B0910120FFF74AFF01201F490860FFF73D
:100B300045FF00201D49C1F8B4014FEA48080120D3
:100B4000FFF73CFF601CC4B2102CE3DB0220FFF770
:100B500035FF012014490C3908600220FFF72EFFF1
:100B6000BDE8F08310B5002442F29640FFF796FFEF
:100B700042F29440FFF792FF00BF08E0C4F1700119
:100B80000B4A52F82100FFF789FF601C44B2712C18
:100B9000F4DB42F29C40FFF781FF42F29C40FFF7FA
:100BA0007DFF10BD000C0140B48121420080214234
:100BB000380000200246002105E0481CC1B2C829C7
:100BC00001DD002070473C48008900F00200002849
:100BD000F3D039488281002105E0481CC1B2C82900
:100BE00001DD0020EEE73448008900F00100002814
:100BF000F3D031488089C0B2E4E708B5012141F261
:100C0000040000F08DFCE020ADF8000018208DF805
:100C1000030003208DF802006946284800F0C4F95B
:100C2000E021264800F06DFA0020254908804FF4A5
:100C30008270488000208880C88008814FF400704E
:100C40004881102088810020C881072008821A4826
:100C500000F062FF0121184801F003F8FF20FFF7C0
:100C6000A9FF08BD10B50446154884810146124805
:100C700000F052FF0121104800F0F3FF10BD70B5E5
:100C80000025104840780F498978084400F00F0586
:100C90000C48C57000240CE000BF0221064801F09A
:100CA00064F80028F9D00748015D034801F00AF80C
:100CB000641C052CF0DB70BD0030014000080140D1
:100CC000240200201C00002010B56FF0040000F08A
:100CD000DEFE2E4800682E49B0FBF1F02D49087069
:100CE0000846007800EB4001C1EBC0104FF6FF71E1
:100CF00001EAC0002849088010BD0146254A127843
:100D00004A434FF0E0235A6100229A611A46126961
:100D100042F001021A6100BF4FF0E022106900F0BA
:100D200001021AB100F48032002AF5D04FF0E0221F
:100D3000126922F001024FF0E0231A6100229A6149
:100D400070470146144A12884A434FF0E0235A6123
:100D500000229A611A46126942F001021A6100BF2C
:100D60004FF0E022106900F001021AB100F4803265
:100D7000002AF5D04FF0E022126922F001024FF074
:100D8000E0231A6100229A617047000024000020CD
:100D900000127A00FC010020FE01002010B54FF483
:100DA000A06000F025FE10BD00BF704700BF3A4AAA
:100DB000128802F04002002AF9D0C2B2364B1B1D45
:100DC0001A80704710B586B00446012144F2040031
:100DD00000F0A6FB304800F007FC4FF40070ADF8BF
:100DE000140003208DF8160018208DF8170005A9AF
:100DF0002A4800F0D9F84FF48060ADF814000420C0
:100E00008DF8170005A9254800F0CEF825208DF8AB
:100E1000000003208DF801008DF8020001208DF8FC
:100E20000300684600F0E9FD01940020ADF80800D9
:100E3000ADF80A00ADF80C00ADF810000C20ADF8CC
:100E40000E0001A9144800F012FC012240F22551C5
:100E5000114800F0A4FC01210F4800F094FC06B0FA
:100E600010BD10B540F225510B4800F07DFD88B152
:100E7000094800F0F9FC0A490A4A127888540948DE
:100E80000078401C0749087008460078322801DBCA
:100E90000020087010BD7047003801400008014074
:100EA000FE0200200602002009488047094800474A
:100EB000FEE7FEE7FEE7FEE7FEE7FEE7FEE7FEE70A
:100EC000FEE7FEE704480549054A064B7047000067
:100ED0001F0700083101000890030020900900203E
:100EE000900500209005002010B50446CC488442AF
:100EF00008D10121042000F02DFB0021042000F086
:100F000029FB46E0C748844208D10121082000F0AF
:100F100021FB0021082000F01DFB3AE0C24884427A
:100F200008D10121102000F015FB0021102000F055
:100F300011FB2EE0BD48844208D10121202000F0A1
:100F400009FB0021202000F005FB22E0B848844284
:100F500008D10121402000F0FDFA0021402000F0DE
:100F6000F9FA16E0B348844208D10121802000F04C
:100F7000F1FA0021802000F0EDFA0AE0AE48844248
:100F800007D10121801500F0E5FA0021A01500F03D
:100F9000E1FA10BD10B50121084600F0DBFA00218E
:100FA000012000F0D7FA10BD2DE9F04102460025DE
:100FB0000026002000230024002791F803C00CF035
:100FC0000F0591F803C00CF0100CBCF1000F03D01A
:100FD00091F802C04CEA050591F800C0BCF1000F81
:100FE00031D0146800202BE04FF0010C0CFA00F314
:100FF000B1F800C00CEA03069E4220D183004FF0F6
:101000000F0C0CFA03F7BC4305FA03FC4CEA04048A
:1010100091F803C0BCF1280F06D14FF0010C0CFA77
:1010200000FCC2F814C00AE091F803C0BCF1480FFC
:1010300005D14FF0010C0CFA00FCC2F810C0401CA6
:101040000828D1D31460B1F800C0BCF1FF0F34DD23
:10105000546800202EE000F1080C4FF0010808FA57
:101060000CF3B1F800C00CEA03069E4221D18300C4
:101070004FF00F0C0CFA03F7BC4305FA03FC4CEAE3
:10108000040491F803C0BCF1280F05D100F1080C4D
:1010900008FA0CF8C2F8148091F803C0BCF1480FAC
:1010A00007D100F1080C4FF0010808FA0CF8C2F85B
:1010B0001080401C0828CED35460BDE8F0814FF664
:1010C000FF710180022181700421C17070470246C6
:1010D000002093680B400BB1012000E00020704716
:1010E0000146886880B2704702460020D3680B40F2
:1010F0000BB1012000E0002070470146C86880B2B3
:10110000704701617047416170470AB1016100E0B9
:1011100041617047C16070474FF480320A43826179
:101120008161826182698269704702460020434B77
:1011300018684FF68073184040EA021008433F4B8E
:10114000186070473E49C8617047F0B50A460023F1
:1011500000240021002500F00046B6F1004F02D126
:10116000364EF16901E0354E7168C0F3034583B234
:1011700000F44016B6F5401F08D121F070612F4EE3
:10118000766826F070662D4F7E6012E000F48016BF
:10119000B6F5801F06D1032606FA05F4A14341F0F7
:1011A000706106E0460D360103FA06F6B14341F0E0
:1011B000706122B1460D360103FA06F6314300F0A4
:1011C0000046B6F1004F02D11C4EF16101E01B4E0A
:1011D0007160F0BD30B500228B071C0F0F2303FA9E
:1011E00004F2164B08338C1053F824309343134CFD
:1011F00008348D1044F8253023468C1053F82430E1
:101200008C07240F00FA04F423430C4C08348D108F
:1012100044F8253030BD0A49DC31086070470000D1
:1012200000080140000C0140001001400014014082
:1012300000180140001C0140002001400000014056
:1012400000002042DF48006840F00100DD490860EE
:1012500008464068DC490840DA49486008460068AA
:10126000DA490840D74908600846006820F4802021
:1012700008600846406820F4FE0048604FF41F00F4
:1012800088607047CF49096821F48031CD4A1160E8
:101290001146096821F480211160B0F5803F03D028
:1012A000B0F5802F0ED106E0C649096841F48031BF
:1012B000C44A116007E0C349096841F4A021C14A4A
:1012C000116000E000BF00BF704710B5014600226A
:1012D000002300204A11012A02D1BA4C236806E0FB
:1012E000022A02D1B74C236A01E0B64C636A01F0CE
:1012F0001F02012494401C400CB1012000E000209A
:1013000010BD38B5002000900024002500BF31201A
:10131000FFF7DBFF05460098401C00900098B0F5F1
:10132000A06F01D0002DF2D03120FFF7CEFF08B121
:10133000012400E00024204638BD01460020A14AD7
:10134000106820F0F80040EAC10010607047A04922
:1013500008607047024600209A4B586820F47C10C1
:1013600042EA01031843974B586070479849086652
:10137000704701460020934A506820F0030008435C
:10138000506070478F48406800F00C00704701467D
:1013900000208C4A506820F0F000084350607047ED
:1013A00001460020874A506820F4E06008435060FE
:1013B000704701460020834A506820F4605040EA9C
:1013C000C1005060704729B17E4A527A02437D4B7A
:1013D0005A7204E07B4A527A82437A4B5A727047BF
:1013E0007B49D8310860704701460020754A506833
:1013F00020F440400843506070470021714A203279
:101400001170704A82F82010012802D004280AD1F5
:1014100004E001216B4A2032117005E00521694A80
:101420002032117000E000BF00BF704769490860BA
:1014300070476449096A0143624A1162704765490D
:1014400044390860704730B5002100220024002391
:101450005C4D6D6805F00C0121B1042905D0082907
:1014600023D105E05C4D056022E05B4D05601FE087
:10147000544D6D6805F47012524D6D6805F480345A
:10148000022505EB92421CB9544D554305600BE013
:101490004C4D6D6805F400351DB1504D5543056048
:1014A00002E04D4D5543056002E04B4D056000BF25
:1014B00000BF444D6D6805F0F0010909484D6B5CB3
:1014C0000568DD4045603F4D6D6805F4E061090A3F
:1014D000434D6B5C4568DD4085603A4D6D6805F4B1
:1014E0006051C90A3E4D6B5C4568DD40C560354DB5
:1014F0006D6805F44041890B3A4D6B5CC568B5FBDE
:10150000F3F5056130BD29B12E4A526902432D4BD6
:101510005A6104E02B4A526982432A4B5A61704750
:1015200029B1284A92690243264B9A6104E0254A70
:1015300092698243234B9A61704729B1214AD2694B
:101540000243204BDA6104E01E4AD26982431D4BFC
:10155000DA61704729B11B4AD2680243194BDA603D
:1015600004E0184AD2688243164BDA60704729B10A
:10157000144A12690243134B1A6104E0114A1269BA
:101580008243104B1A617047124940390860704716
:101590000F49C86470470B49C87170470948406AD1
:1015A00040F0807007494862704701460020054AB4
:1015B00092680A400AB1012000E00020704701490A
:1015C00088727047001002400000FFF8FFFFF6FE2F
:1015D000000042428004424200127A0000093D00AD
:1015E000100200202002002010B50446FB4884426F
:1015F00009D101218803FFF7ADFF00214FF480409E
:10160000FFF7A8FF32E0F648844209D101214804DF
:10161000FFF7ADFF00214FF40030FFF7A8FF25E0F2
:10162000F048844209D101218804FFF7A0FF00217E
:101630004FF48020FFF79BFF18E0EB48844209D16C
:101640000121C804FFF793FF00214FF40020FFF7AA
:101650008EFF0BE0E548844208D101210805FFF721
:1016600086FF00214FF48010FFF781FF10BD2DE9A8
:10167000F04786B005460E460024A24600BFA146AC
:101680000027B08900B100BF2F462C8A4CF6FF70AE
:101690000440F08804432C82AC894EF6F3100440D9
:1016A000B08831890843718908430443AC81AC8A0E
:1016B0004FF6FF400440B0890443AC8201A8FFF715
:1016C000C2FEC648874202D1DDF810A001E0DDF875
:1016D0000CA0A88900F4004040B10AEBCA0000EB5E
:1016E0000A1031684900B0FBF1F807E00AEBCA00C4
:1016F00000EB0A1031688900B0FBF1F86420B8FBF8
:10170000F0F004012009642101FB1089A88900F48C
:10171000004040B1322000EBC900B0FBF1F000F016
:101720000700044308E0322000EB09106421B0FBFD
:10173000F1F000F00F0004432C8106B0BDE8F08703
:101740004FF41651016000218180C18001810C217C
:10175000418100218181704710B502460020108A26
:101760004FF2FF0318400B884C8823438C88234397
:10177000CC8823431843108210BD00210180418092
:101780008180C180704721B1828942F400528281F8
:1017900004E082894DF6FF731A4082817047F0B5EC
:1017A0000346002400260025002040F66A17B942AF
:1017B00000D100BF1846C1F3421401F01F060127F3
:1017C00007FA06F5012C01D10C3004E0022C01D1FE
:1017D000103000E014301AB107682F43076002E0B0
:1017E0000768AF430760F0BD1AB1838A0B43838259
:1017F00002E0838A8B4383827047028A4FF6F0733C
:101800001A400282028A0A430282704782894FF29A
:10181000FF731A40828182890A438281704721B115
:10182000828942F00202828104E082894FF6FD73D0
:101830001A4082817047028A4FF6DF731A40028293
:10184000028A0A430282704721B1028A42F480422E
:10185000028204E0028A4BF6FF731A40028270474C
:10186000C1F308028280704701468888C0F30800EF
:101870007047818941F0010181817047028BD2B2AA
:101880000283028B42EA012202837047028B02F438
:101890007F420283028B0A430283704721B1828A0E
:1018A00042F02002828204E0828A4FF6DF731A40FF
:1018B0008282704721B1828A42F01002828204E063
:1018C000828A4FF6EF731A408282704721B1828A72
:1018D00042F00802828204E0828A4FF6F7731A40CF
:1018E0008282704721B1828942F40042828103E002
:1018F0008289C2F30E028281704721B1828A42F44A
:101900000062828204E0828A4FF2FF731A40828270
:101910007047828A4FF6FB731A408282828A0A439A
:101920008282704721B1828A42F00202828204E000
:10193000828A4FF6FD731A40828270470246002069
:10194000B1F5007F00D100BF13880B400BB101201F
:1019500000E00020704701F40072B2F5007F00D172
:1019600000BFCA430280704770B5024600240023BE
:101970000025002040F66A16B14200D100BFC1F335
:10198000421501F01F03012606FA03F3012D02D1CF
:101990009689334006E0022D02D1168A334001E0D9
:1019A000968A33400C12012606FA04F41688344055
:1019B00013B10CB1012000E0002070BD10B5002271
:1019C000002340F66A14A14200D100BF0A1201248C
:1019D0009440A3B2DC43048010BD000000380140F5
:1019E0000044004000480040004C004000500040CF
:1019F00031490143314A1160704770B5002100231D
:101A00000F22C47804B32D4C246804F4E064C4F5B8
:101A1000E064210AC1F10403CA40447804FA03F1E6
:101A20008478144021430901254C0678A155047897
:101A300004F01F050124AC4005786D11AD0005F1DF
:101A4000E025C5F8004109E0047804F01F050124F1
:101A5000AC401C4D0678761145F8264070BD1A4AF8
:101A60000A400243154B1B1F1A60704739B1134AD5
:101A7000121D12680243114B1B1D1A6006E00F4A2B
:101A8000121D126882430D4B1B1D1A6070470428FB
:101A900008D14FF0E021096941F004014FF0E02244
:101AA000116107E04FF0E021096921F004014FF0D6
:101AB000E0221161704700000000FA050CED00E023
:101AC00000E400E080E100E080FFFF1F10B5044665
:101AD000BE48844208D101218014FFF73BFD00215C
:101AE000A014FFF737FD16E0B948844208D1012160
:101AF0000014FFF73CFD00212014FFF738FD0AE039
:101B0000B448844207D10121C013FFF730FD002102
:101B1000E013FFF72CFD10BD10B50022028802F47F
:101B200041520B884C8823438C882343CC88234321
:101B30000C8923434C8923438C892343CC89234339
:101B40001A430280838B4FF2FF74234083830B8AF6
:101B5000038210BD2DE9F04F85B005460C464FF0CD
:101B6000000902274FF000084FF0010B0026B24693
:101B7000A88B4FF240010840A88302202884B5F8C2
:101B80001C90A068022801D100BF38E0A08810B9DD
:101B90004FF0010B01E04FF0020B8D48854200D160
:101BA00000E000BF6846FFF74EFCDDF800A0E088CB
:101BB000B0F5007F0AD14FEA1A2000EB8000400008
:101BC000A168B0FBF1F0401D86B20BE04FEA4B106C
:101BD000BAFBF0F000EB80004000A168B0FBF1F030
:101BE000401D86B20A20B6FBF0F606F00108A6EB0F
:101BF0000800C0F34F074FF6FF7000EA0828022FD5
:101C000001DBFF2F02DD02274FF00008E08840EAE9
:101C1000080038432884A088A189084361880843C4
:101C20002188084340F4006040EA0909A5F81C90A7
:101C300005B0BDE8F08F0021018041808180C18026
:101C4000018141818181C181072101827047002189
:101C5000018041808180C1800221816000218181D9
:101C6000704721B1028842F04002028004E00288FD
:101C70004FF6BF731A400280704721B1828B42F445
:101C80008062828304E0828B4FF6FF331A408283A6
:101C9000704730B5002400230C110125A540ABB2DC
:101CA0001AB185881D43858002E085889D43858023
:101CB00030BD1AB183880B43838002E083888B4355
:101CC00083807047818170470146888970474FF64D
:101CD000FF62914204D0028842F48072028004E0E4
:101CE00002884FF6FF631A400280704721B1828854
:101CF00042F00402828004E082884FF6FB731A40AF
:101D00008280704702884FF2FF731A400280028877
:101D10000A4302807047018841F480510180704776
:101D200021B1028842F40052028004E002884DF69C
:101D3000FF731A400280704702460020012901D03B
:101D4000108B00E0908A70470146088A7047B1F511
:101D5000804F04D1028842F48042028004E002886D
:101D60004BF6FF731A400280704702460020138929
:101D70000B400BB1012000E000207047CA430281F4
:101D80007047F0B50246002000240023002501F032
:101D90000F070126BE40B4B20B1101269E40B3B21C
:101DA000968806EA03051689264016B10DB1012072
:101DB00000E00020F0BD10B5002201F00F04012367
:101DC000A3409AB2D343038110BD0000003001400C
:101DD00000380040003C0040704770477047704733
:101DE0007047754600F028F8AE4605006946534630
:101DF00020F00700854618B020B5FFF763F8BDE86E
:101E000020404FF000064FF000074FF000084FF061
:101E1000000B21F00701AC46ACE8C009ACE8C009F2
:101E2000ACE8C009ACE8C0098D4670470446AFF382
:101E300000802046FEF7E3F9004870473003002099
:101E4000601E000800000020240200006C01000851
:101E5000E81F0008240200206C070000C8010008E9
:101E6000011C32AA425584A24A042009010203043B
:101E7000060708093270326F326E326D326C326B87
:101E8000126A122132693268126714803F66121199
:101E90003265326422631302623488086132603230
:101EA0005F325E325D325C325B325A3259325832C6
:101EB00057225613D355120132542253331E521255
:101EC00051146666501226124F1203324E124D12F2
:101ED0000C224C33084B124A123F1A493012481256
:101EE0008112473450C346124534E8034412433448
:101EF000F40142124134881340123F1422033E126F
:101F0000A8123D12181A3C34123B1401803A1220D8
:101F100032393238323732361235142008341280D2
:101F200032331232248041311B033004122F14FC4F
:101F3000072E14DFC82D12A3322C322B322A32295D
:101F40001A2874322712261C040425721224120443
:101F50003223122214211E211493032014EC031F98
:101F60001C8C311E04121D1488041C1202121B1436
:101F7000B00D1A14240619141A0718127C1A179493
:101F80001216140104151448F01414B72713126420
:101F9000121212C31A118C1210144F060F24701E45
:101FA0000E13400D1C01500CC4120B14D8100A243F
:101FB00004160913200814B240071402C80612C8F8
:101FC000120514430A0424420603130502140808E8
:101FD00001031A94242D01020304040009000607DA
:081FE0000809020406080000D4
:0400000508000131BD
:00000001FF
