:0300000002023EBB
:0C023E00787FE4F6D8FD7581110201BE46
:0402510075B28222DE
:0F01ED00D2837F0A7E001201FCC2837F0A7E004C
:1001FC00D3EF9400EE940040147D6E7C00ED1D70E6
:0D020C00011CED4C70F7EF1F70E61E80E343
:0102190022C2
:06014100F50EF50D7F052F
:02014700AB0704
:10014900C281C283EB25E0FBD2811201F8E4F511EB
:10015900EB30E704D2828002C2821201EDEB25E086
:10016900FB0511E511C3940740E6E4F511E4FFFE30
:10017900E50E5480FDE4FCFBFA7980F8C312021AFB
:100189007004D2828002C2821201EDAF10AE0FADAF
:100199000EAC0D780112022B8F108E0F8D0E8C0D67
:1001A9000511E511C3941940C41201F8C2817F0AEF
:0501B9007E000201FCC4
:10000300E4F50BF50AF509F508751075750F7975A3
:100013000E0AF50DFF120147E4751002F50FF50EF8
:10002300F50D7F01120147E4751002F50FF50EF58A
:100033000D7F02120147E4751088750F0F120141FD
:10004300E4751010750FE0120141E4751098750FF7
:1000530008120141E4751028750F16120141E47569
:1000630010A0750F60120141E4F510F50F12014164
:1000730075104A750F0B750E20750D007F06120162
:1000830047E47510CA750F01F50EF50D7F071201D0
:10009300477510FF750FBE750EC1750D007F0812F1
:1000A30001477510FF750F7F750E54750D007F099D
:1000B300120147E4751046750F20F50EF50D7F0A02
:1000C300120147751021750FC0750E07750D007F5E
:1000D3000B120147E47510FFF50FF50EF50D7F0CBC
:1000E300120147E4F510F50FF50EF50D7F0D120122
:1000F30047E4F510F50FF50EF50D7F0E120147E4F9
:10010300751081F50FF50EF50D7F0F120147E4759C
:100113001028F50FF50EF50D7F03120147751067D3
:10012300750F66750E66750D007F04120147E47541
:0E0133001090750FE0F50EF50D7F05020147E7
:07024A0075A40E75E24022CD
:1001BE0053D9BF12025112024A7FB87E0B1201FCB4
:1001CE001200031200032084FD7F2C7E011201FC1D
:0F01DE002084F31200037FB87E0B1201FC80E730
:10021A00EB9FF5F0EA9E42F0E99D42F0E89C45F03A
:01022A0022B1
:10022B00E8600FEFC333FFEE33FEED33FDEC33FC31
:03023B00D8F122D5
:00000001FF
