:020000040800F2
:1000000078080020CD0D0008090200080B02000846
:100010000F02000813020008170200080000000089
:100020000000000000000000000000001B020008AB
:100030001D020008000000001F0200082102000845
:10004000E70D0008E70D0008E70D0008E70D0008C0
:10005000E70D0008E70D0008E70D0008E70D0008B0
:10006000E70D0008E70D0008E70D0008E70D0008A0
:10007000E70D0008E70D0008E70D0008E70D000890
:10008000E70D0008E70D0008E70D0008E70D000880
:10009000E70D0008E70D0008E70D0008E70D000870
:1000A000E70D0008E70D0008E70D0008E70D000860
:1000B000E70D0008E70D0008E70D0008E70D000850
:1000C000E70D0008E70D0008E70D0008D704000859
:1000D000E70D0008870D0008E70D0008E70D000890
:1000E000E70D0008E70D0008E70D0008E70D000820
:1000F000E70D0008E70D0008E70D0008E70D000810
:10010000E70D0008E70D0008E70D0008E70D0008FF
:10011000E70D0008E70D0008E70D0008E70D0008EF
:10012000E70D0008E70D0008E70D0008E70D0008DF
:1001300000F002F800F03AF80AA090E8000C8244BF
:100140008344AAF10107DA4501D100F02FF8AFF29C
:10015000090EBAE80F0013F0010F18BFFB1A43F0A5
:1001600001031847001C0000201C0000103A24BFA7
:1001700078C878C1FAD8520724BF30C830C144BF0C
:1001800004680C607047000000230024002500264E
:10019000103A28BF78C1FBD8520728BF30C148BFEA
:1001A0000B6070471FB51FBD10B510BD01F0ABFD52
:1001B0001146FFF7F7FF00F009F801F0C9FD03B49D
:1001C000FFF7F2FF03BC00F081FD000000F00EFD20
:1001D00000F076FD642000F046FD00F028F938209C
:1001E00000F06CF900F0B4F90AE006480078012844
:1001F00006D100F08DFC00F03EFA002001490870A5
:10020000F3E7000000000020704700BFFEE700BFDA
:10021000FEE700BFFEE700BFFEE77047704770478C
:10022000704700000CB50020019000906C480068F9
:1002300040F480306A49086000BF6948006800F4F3
:10024000003000900198401C0190009818B9019866
:10025000B0F5A06FF1D16248006800F4003010B131
:100260000120009001E0002000900098012843D177
:100270005C48006840F010005A4908600846006871
:1002800020F0030008600846006840F002000860A3
:1002900053484068524948600846406848600846EC
:1002A000406840F4806048600846406820F47C1054
:1002B00048600846406840F4E81048600846006816
:1002C00040F08070086000BF4548006800F0007092
:1002D0000028F9D04248406820F0030040494860B7
:1002E0000846406840F00200486000BF3C48406853
:1002F00000F00C000828F9D10CBD10B5FFF792FFF3
:1003000010BD10B53648006840F00100344908605F
:10031000084640683449084031494860084600684A
:10032000324908402E4908600846006820F48020C1
:1003300008600846406820F4FE0048604FF41F0043
:100340008860FFF7DAFF4FF000602949086010BDB0
:1003500010B5002100200022214B5B6803F00C0146
:1003600021B1042906D0082928D107E0214B224CCD
:10037000236027E01F4B204C236023E0184B5B6871
:1003800003F47010164B5B6803F48032022303EB16
:10039000904022B9194B4343174C23600DE0104B9A
:1003A0005B6803F4003323B1144B4343124C2360C6
:1003B00003E0104B4343104C236003E00D4B0E4C05
:1003C000236000BF00BF064B5B68C3F303130C4CF4
:1003D000E15C094B1B68CB40074C236010BD00005B
:1003E00000100240002002400000FFF8FFFFF6FE70
:1003F00008ED00E000127A000400002000093D0032
:100400000800002070B50546002405E0601CC4B259
:10041000642C01DD002070BD0121464801F037FC4D
:100420000028F3D0434801F0E1FBC0B2F3E71CB56C
:10043000012141F2040001F005F8E020ADF80400CC
:1004400018208DF8070003208DF8060001A93A480E
:1004500000F03CFDE021384800F0E5FD4FF48060FD
:1004600036490880002048808880C88008814FF481
:1004700000704881102088810020C88107200882F0
:100480002C4801F0DBFA23208DF8000003208DF8C2
:1004900001008DF8020001208DF80300684601F08C
:1004A0003EFA01226021234801F085FB0121214809
:1004B00001F069FBFF20FFF7A5FF1CBD10B5044646
:1004C0001E48848101461B4801F0B8FA01211948F1
:1004D00001F059FB10BD10B56021164801F0D7FBA3
:1004E000012825D1134801F081FB1549154A1278DE
:1004F0008854084613490978405C55280DD11148A5
:100500000078001F0E49085CAA2806D101200E4978
:1005100008700C4800780D4908700A480078401CA3
:100520000849087008460078C72801DD00200870D7
:1005300010BD0000003001400008014044000020D0
:1005400056000020180000200000002019000020A4
:1005500008B501213C2000F075FF41F60F70ADF8A1
:10056000000010208DF8030003208DF8020069467A
:10057000F94800F0ABFC4FF6E370ADF80000102036
:100580008DF8030003208DF802006946F34800F05F
:100590009DFC4FF6E070ADF8000010208DF80300D0
:1005A00003208DF802006946ED4800F08FFC04201E
:1005B000ADF8000010208DF8030003208DF8020034
:1005C0006946E84800F082FC0020E7490860E749F6
:1005D000C1F8A001E44908310860E5490860091D37
:1005E0000860091D0860E2490C390860091D0860AF
:1005F000DD49091F0860DE49091F0860DA4908392A
:100600000860DC490860DC490860091F0860091FB0
:100610000860091F0860091F0860D5491039086083
:10062000D14914310860091F0860091F0860CE49CC
:1006300018390860091F0860CD4920390860CA4987
:1006400018310860091D0860091D0860C8491C3977
:100650000860091D0860091D0860C7493039086035
:100660000120091D08600020091D08600120C34900
:10067000C1F88C0108BD10B50020C1490978091FD7
:10068000C04A515CAA297CD11146BD4A1278895CC6
:100690005529F8D1BA490978C91EBA4A525CB849F5
:1006A0000978891EB74B595C114401F00F02B44917
:1006B0000978491E595C8A42E5D1B1490978C91EB9
:1006C0001A46505CAE4A1278D21E995CCA1701EBEA
:1006D000D2625211002A65D10021A74A121F11606F
:1006E000A64AC2F8A811A44A0C3A1160121F116060
:1006F0009F4A103A11609E4A083A11609A4A121FA6
:1007000011609B4A121F1160974A083A1160994A7A
:100710001160954A121D1160121D1160944A1160FA
:10072000121D1160121D11600146C31700EBD36347
:100730005B11A0EB4312D31702EB13731B118C4C0C
:10074000203C2360C31700EB13731B11A0EB0312B3
:10075000D31702EB5373DB10834C1C3C2360C3178D
:1007600000EB5373DB10A0EBC302D31702EB9373C0
:100770009B107E4CC4F88431C31700EB93739B101D
:1007800000E0C4E1A0EB830202EBD2735B10C4F87B
:10079000A83100EBD1725210A0EB42022346C3F8FD
:1007A000AC21B4E1764A1278D21E764B995CCA1716
:1007B00001EBD2620123B3EB621F7DD101216A4AB2
:1007C00010321160694AC2F8A811674A183A1160DC
:1007D000121F1160664A203A11600021644A083AEB
:1007E0001160614A121F1160614A121F11605E4A56
:1007F000083A11605F4A11605B4A121D1160121DB8
:1008000011605B4A1160121D1160121D1160411CC4
:10081000CA1701EBD2625211A1EB4212D0B278B9E1
:100820000121554A121F1160544AC2F8A811524AB8
:100830000C3A1160121F11604D4A103A116066E1C6
:100840000146C31700EBD3635B11A0EB4312D31730
:1008500002EB13731B11464C103C2360C31700EBD3
:1008600013731B11A0EB0312D31702EB5373DB10AE
:10087000424CC4F8A031C31700EB5373DB10A0EB5C
:10088000C302D31702EB93739B103B4C0C3C2360C9
:10089000C31700EB93739B10A0EB830202EBD273A0
:1008A0005B10364CC4F8A83100EBD1725210A0EBAB
:1008B0004202314B1B1F00E001E01A6027E1304A81
:1008C0001278D21E2F4B995CCA1701EBD262022319
:1008D000B3EB621F7ED10121234A10321160234AFB
:1008E000C2F8A811204A183A1160121F1160204A5C
:1008F000203A1160204A121F1160121F1160121F4E
:100900001160121F11601A4A103A11600021164A34
:10091000121D1160121D1160154A1160121D116027
:10092000121D1160411CCA1701EBD2625211A1EBDA
:100930004212D0B278B901210D4A083A11600B4A2F
:10094000C2F898110A4A121F1160074A083A11604A
:10095000084A1160DBE017E000080140000C01408C
:1009600000100140001401409C812142008021427E
:10097000B401224288812242B0012142000021427A
:1009800019000020560000200146C31700EBD36376
:100990005B11A0EB4312D31702EB13731B118A4CAC
:1009A0002360C31700EB13731B11A0EB0312D317C3
:1009B00002EB5373DB10854CC4F89431C31700EB82
:1009C0005373DB10A0EBC302D31702EB93739B109E
:1009D0007F4C00E015E02360C31700EB93739B107E
:1009E000A0EB830202EBD2735B10784CC4F8983111
:1009F00000EBD1725210A0EB4202754B1B1F1A6024
:100A000085E0744A1278D21E734B995CCA1701EBC9
:100A1000D2620323B3EB621F79D101216F4A1160C7
:100A20006A4AC2F8A8116D4A283A1160121F116073
:100A3000674A1C3A11606A4A1160121F1160121F46
:100A40001160121F1160624A0C3A1160604A121F55
:100A50001160624A143A11605D4A11605F4A183AA7
:100A60001160594A1160411CCA1701EBD262521140
:100A7000A1EB4212D0B270B90121584A0C3A116070
:100A8000524AC2F8A411524A121D1160121D11607F
:100A9000121D11603BE00146C31700EBD3635B11ED
:100AA000A0EB4312D31702EB13731B11484C0C3409
:100AB0002360C31700EB13731B11A0EB0312D317B2
:100AC00002EB5373DB10474CC4F8B831C31700EB8B
:100AD0005373DB10A0EBC302D31702EB93739B108D
:100AE0003B4C241D2360C31700EB93739B10A0EBBA
:100AF000830202EBD2735B10344CC4F8A43100EBD8
:100B0000D1725210A0EB4202344B0C3B1A6010BD64
:100B100030480078001F3049085CAA2852D10846A6
:100B20002C490978405C55284CD12A480078C01ED1
:100B30002949095C27480078801E274A105C084430
:100B400000F00F0123480078401E105C814239D12B
:100B500020480078801E1146085C012804D100203E
:100B60001F49203908602DE01A480078801E1A4974
:100B7000085C022810D1002019492C390860012096
:100B80001949C1F884010020154924390860012061
:100B90001549C1F88C0115E00E480078801E0E49F9
:100BA000085C04280ED101200D492C390860002072
:100BB0000D49C1F8840101200949243908600A4916
:100BC000C1F88C01704700008881224200802142D8
:100BD000B00122421900002056000020AC812142C1
:100BE000AC012142000022420000214210B56FF00A
:100BF000040000F0DEFE2E4800682E49B0FBF1F044
:100C00002D4908700846007800EB4001C1EBC01088
:100C10004FF6FF7101EAC0002849088010BD014667
:100C2000254A12784A434FF0E0235A6100229A6124
:100C30001A46126942F001021A6100BF4FF0E02229
:100C4000106900F001021AB100F48032002AF5D0D8
:100C50004FF0E022126922F001024FF0E0231A6106
:100C600000229A6170470146144A12884A434FF0A5
:100C7000E0235A6100229A611A46126942F0010289
:100C80001A6100BF4FF0E022106900F001021AB1B2
:100C900000F48032002AF5D04FF0E022126922F0F1
:100CA00001024FF0E0231A6100229A6170470000B0
:100CB0000400002000127A001A0000201C0000200E
:100CC00010B54FF4A06000F025FE10BD00BF7047C6
:100CD00000BF3A4A128802F04002002AF9D0C2B29C
:100CE000364B1B1D1A80704710B586B00446012193
:100CF00044F2040000F0A6FB304800F007FC4FF47B
:100D00000070ADF8140003208DF8160018208DF83F
:100D1000170005A92A4800F0D9F84FF48060ADF813
:100D2000140004208DF8170005A9254800F0CEF81E
:100D300025208DF8000003208DF801008DF80200B9
:100D400001208DF80300684600F0E9FD01940020C1
:100D5000ADF80800ADF80A00ADF80C00ADF81000D1
:100D60000C20ADF80E0001A9144800F012FC01227D
:100D700040F22551114800F0A4FC01210F4800F079
:100D800094FC06B010BD10B540F225510B4800F0A0
:100D90007DFD88B1094800F0F9FC0A490A4A127839
:100DA000885409480078401C0749087008460078B4
:100DB000322801DB0020087010BD70470038014068
:100DC00000080140E6010020260000200948804775
:100DD00009480047FEE7FEE7FEE7FEE7FEE7FEE71D
:100DE000FEE7FEE7FEE7FEE704480549054A064B35
:100DF000704700000303000831010008780200205A
:100E000078080020780400207804002010B50446FB
:100E1000CC48844208D10121042000F02DFB0021A0
:100E2000042000F029FB46E0C748844208D1012194
:100E3000082000F021FB0021082000F01DFB3AE013
:100E4000C248844208D10121102000F015FB002186
:100E5000102000F011FB2EE0BD48844208D1012192
:100E6000202000F009FB0021202000F005FB22E0FB
:100E7000B848844208D10121402000F0FDFA002149
:100E8000402000F0F9FA16E0B348844208D101216D
:100E9000802000F0F1FA0021802000F0EDFA0AE055
:100EA000AE48844207D10121801500F0E5FA002107
:100EB000A01500F0E1FA10BD10B50121084600F0C0
:100EC000DBFA0021012000F0D7FA10BD2DE9F04136
:100ED000024600250026002000230024002791F868
:100EE00003C00CF00F0591F803C00CF0100CBCF11E
:100EF000000F03D091F802C04CEA050591F800C03C
:100F0000BCF1000F31D0146800202BE04FF0010C31
:100F10000CFA00F3B1F800C00CEA03069E4220D19F
:100F200083004FF00F0C0CFA03F7BC4305FA03FCE7
:100F30004CEA040491F803C0BCF1280F06D14FF02D
:100F4000010C0CFA00FCC2F814C00AE091F803C0CE
:100F5000BCF1480F05D14FF0010C0CFA00FCC2F8AF
:100F600010C0401C0828D1D31460B1F800C0BCF1F7
:100F7000FF0F34DD546800202EE000F1080C4FF024
:100F8000010808FA0CF3B1F800C00CEA03069E420F
:100F900021D183004FF00F0C0CFA03F7BC4305FA84
:100FA00003FC4CEA040491F803C0BCF1280F05D1FE
:100FB00000F1080C08FA0CF8C2F8148091F803C08C
:100FC000BCF1480F07D100F1080C4FF0010808FAF6
:100FD0000CF8C2F81080401C0828CED35460BDE83D
:100FE000F0814FF6FF710180022181700421C170F0
:100FF00070470246002093680B400BB1012000E0CF
:10100000002070470146886880B270470246002081
:10101000D3680B400BB1012000E00020704701466F
:10102000C86880B2704701617047416170470AB17A
:10103000016100E041617047C16070474FF4803248
:101040000A438261816182618269826970470246D6
:101050000020434B18684FF68073184040EA021096
:1010600008433F4B186070473E49C8617047F0B570
:101070000A46002300240021002500F00046B6F1B6
:10108000004F02D1364EF16901E0354E7168C0F370
:10109000034583B200F44016B6F5401F08D121F095
:1010A00070612F4E766826F070662D4F7E6012E0DC
:1010B00000F48016B6F5801F06D1032606FA05F463
:1010C000A14341F0706106E0460D360103FA06F6D1
:1010D000B14341F0706122B1460D360103FA06F6C4
:1010E000314300F00046B6F1004F02D11C4EF161D1
:1010F00001E01B4E7160F0BD30B500228B071C0F64
:101100000F2303FA04F2164B08338C1053F82430E3
:101110009343134C08348D1044F8253023468C102B
:1011200053F824308C07240F00FA04F423430C4CAA
:1011300008348D1044F8253030BD0A49DC31086090
:101140007047000000080140000C01400010014001
:101150000014014000180140001C01400020014023
:101160000000014000002042DF48006840F001001C
:10117000DD49086008464068DC490840DA494860B3
:1011800008460068DA490840D74908600846006800
:1011900020F4802008600846406820F4FE00486083
:1011A0004FF41F0088607047CF49096821F48031EF
:1011B000CD4A11601146096821F480211160B0F513
:1011C000803F03D0B0F5802F0ED106E0C6490968F4
:1011D00041F48031C44A116007E0C349096841F411
:1011E000A021C14A116000E000BF00BF704710B5E8
:1011F00001460022002300204A11012A02D1BA4CE4
:10120000236806E0022A02D1B74C236A01E0B64CFB
:10121000636A01F01F02012494401C400CB10120BC
:1012200000E0002010BD38B500200090002400250B
:1012300000BF3120FFF7DBFF05460098401C0090FF
:101240000098B0F5A06F01D0002DF2D03120FFF74B
:10125000CEFF08B1012400E00024204638BD01463D
:101260000020A14A106820F0F80040EAC100106098
:101270007047A04908607047024600209A4B5868A2
:1012800020F47C1042EA01031843974B58607047E2
:1012900098490866704701460020934A506820F03C
:1012A00003000843506070478F48406800F00C000E
:1012B0007047014600208C4A506820F0F000084337
:1012C0005060704701460020874A506820F4E06073
:1012D00008435060704701460020834A506820F45C
:1012E000605040EAC1005060704729B17E4A527A8E
:1012F00002437D4B5A7204E07B4A527A82437A4B16
:101300005A7270477B49D831086070470146002007
:10131000754A506820F440400843506070470021EF
:10132000714A20321170704A82F82010012802D0D0
:1013300004280AD104E001216B4A2032117005E033
:101340000521694A2032117000E000BF00BF7047DC
:101350006949086070476449096A0143624A116239
:101360007047654944390860704730B50021002254
:10137000002400235C4D6D6805F00C0121B10429A7
:1013800005D0082923D105E05C4D056022E05B4DC6
:1013900005601FE0544D6D6805F47012524D6D6884
:1013A00005F48034022505EB92421CB9544D554397
:1013B00005600BE04C4D6D6805F400351DB1504DD6
:1013C0005543056002E04D4D5543056002E04B4D2D
:1013D000056000BF00BF444D6D6805F0F0010909CC
:1013E000484D6B5C0568DD4045603F4D6D6805F418
:1013F000E061090A434D6B5C4568DD4085603A4D0C
:101400006D6805F46051C90A3E4D6B5C4568DD406E
:10141000C560354D6D6805F44041890B3A4D6B5CF4
:10142000C568B5FBF3F5056130BD29B12E4A526997
:1014300002432D4B5A6104E02B4A526982432A4BE6
:101440005A61704729B1284A92690243264B9A6132
:1014500004E0254A92698243234B9A61704729B17F
:10146000214AD2690243204BDA6104E01E4AD26964
:1014700082431D4BDA61704729B11B4AD26802438F
:10148000194BDA6004E0184AD2688243164BDA60DE
:10149000704729B1144A12690243134B1A6104E0E0
:1014A000114A12698243104B1A6170471249403940
:1014B000086070470F49C86470470B49C87170478E
:1014C0000948406A40F08070074948627047014609
:1014D0000020054A92680A400AB1012000E000207D
:1014E0007047014988727047001002400000FFF801
:1014F000FFFFF6FE000042428004424200127A00E2
:1015000000093D00300000204000002010B50446D6
:10151000FB48844209D101218803FFF7ADFF002178
:101520004FF48040FFF7A8FF32E0F648844209D12B
:1015300001214804FFF7ADFF00214FF40030FFF711
:10154000A8FF25E0F048844209D101218804FFF773
:10155000A0FF00214FF48020FFF79BFF18E0EB482D
:10156000844209D10121C804FFF793FF00214FF401
:101570000020FFF78EFF0BE0E548844208D10121EF
:101580000805FFF786FF00214FF48010FFF781FF69
:1015900010BD2DE9F04786B005460E460024A24650
:1015A00000BFA1460027B08900B100BF2F462C8A9A
:1015B0004CF6FF700440F08804432C82AC894EF650
:1015C000F3100440B088318908437189084304430B
:1015D000AC81AC8A4FF6FF400440B0890443AC8232
:1015E00001A8FFF7C2FEC648874202D1DDF810A06D
:1015F00001E0DDF80CA0A88900F4004040B10AEB3E
:10160000CA0000EB0A1031684900B0FBF1F807E0AE
:101610000AEBCA0000EB0A1031688900B0FBF1F850
:101620006420B8FBF0F004012009642101FB10895B
:10163000A88900F4004040B1322000EBC900B0FBA3
:10164000F1F000F00700044308E0322000EB09103D
:101650006421B0FBF1F000F00F0004432C8106B0D0
:10166000BDE8F0874FF41651016000218180C180F0
:1016700001810C21418100218181704710B5024612
:101680000020108A4FF2FF0318400B884C88234338
:101690008C882343CC8823431843108210BD00213B
:1016A000018041808180C180704721B1828942F4EC
:1016B0000052828104E082894DF6FF731A408281D4
:1016C0007047F0B50346002400260025002040F6B0
:1016D0006A17B94200D100BF1846C1F3421401F0A5
:1016E0001F06012707FA06F5012C01D10C3004E092
:1016F000022C01D1103000E014301AB107682F43DA
:10170000076002E00768AF430760F0BD1AB1838A43
:101710000B43838202E0838A8B4383827047028A71
:101720004FF6F0731A400282028A0A43028270471F
:1017300082894FF2FF731A40828182890A43828133
:10174000704721B1828942F00202828104E08289DD
:101750004FF6FD731A4082817047028A4FF6DF739D
:101760001A400282028A0A430282704721B1028A29
:1017700042F48042028204E0028A4BF6FF731A4070
:1017800002827047C1F30802828070470146888850
:10179000C0F308007047818941F0010181817047E1
:1017A000028BD2B20283028B42EA0122028370478B
:1017B000028B02F47F420283028B0A43028370474A
:1017C00021B1828A42F02002828204E0828A4FF6AE
:1017D000DF731A408282704721B1828A42F0100280
:1017E000828204E0828A4FF6EF731A408282704749
:1017F00021B1828A42F00802828204E0828A4FF696
:10180000F7731A408282704721B1828942F4004204
:10181000828103E08289C2F30E028281704721B186
:10182000828A42F40062828204E0828A4FF2FF736D
:101830001A4082827047828A4FF6FB731A40828276
:10184000828A0A438282704721B1828A42F0020270
:10185000828204E0828A4FF6FD731A4082827047CA
:1018600002460020B1F5007F00D100BF13880B4075
:101870000BB1012000E00020704701F40072B2F5C6
:10188000007F00D100BFCA430280704770B5024696
:10189000002400230025002040F66A16B14200D142
:1018A00000BFC1F3421501F01F03012606FA03F33E
:1018B000012D02D19689334006E0022D02D1168A0D
:1018C000334001E0968A33400C12012606FA04F4F4
:1018D0001688344013B10CB1012000E0002070BD27
:1018E00010B50022002340F66A14A14200D100BFC7
:1018F0000A1201249440A3B2DC43048010BD00000E
:10190000003801400044004000480040004C0040C6
:101910000050004031490143314A1160704770B5B1
:10192000002100230F22C47804B32D4C246804F452
:10193000E064C4F5E064210AC1F10403CA404478BC
:1019400004FA03F18478144021430901254C0678F8
:10195000A155047804F01F050124AC4005786D11F1
:10196000AD0005F1E025C5F8004109E0047804F078
:101970001F050124AC401C4D0678761145F8264021
:1019800070BD1A4A0A400243154B1B1F1A6070476C
:1019900039B1134A121D12680243114B1B1D1A6004
:1019A00006E00F4A121D126882430D4B1B1D1A6080
:1019B0007047042808D14FF0E021096941F0040183
:1019C0004FF0E022116107E04FF0E021096921F0BA
:1019D00004014FF0E0221161704700000000FA0599
:1019E0000CED00E000E400E080E100E080FFFF1F7C
:1019F00010B50446BE48844208D101218014FFF787
:101A00003BFD0021A014FFF737FD16E0B9488442E2
:101A100008D101210014FFF73CFD00212014FFF73D
:101A200038FD0AE0B448844207D10121C013FFF712
:101A300030FD0021E013FFF72CFD10BD10B5002292
:101A4000028802F441520B884C8823438C8823433C
:101A5000CC8823430C8923434C8923438C8923431B
:101A6000CC8923431A430280838B4FF2FF742340B7
:101A700083830B8A038210BD2DE9F04F85B00546A4
:101A80000C464FF0000902274FF000084FF0010B01
:101A90000026B246A88B4FF240010840A8830220DE
:101AA0002884B5F81C90A068022801D100BF38E056
:101AB000A08810B94FF0010B01E04FF0020B8D48E8
:101AC000854200D100E000BF6846FFF74EFCDDF81C
:101AD00000A0E088B0F5007F0AD14FEA1A2000EBA1
:101AE00080004000A168B0FBF1F0401D86B20BE021
:101AF0004FEA4B10BAFBF0F000EB80004000A16809
:101B0000B0FBF1F0401D86B20A20B6FBF0F606F0FD
:101B10000108A6EB0800C0F34F074FF6FF7000EA7C
:101B20000828022F01DBFF2F02DD02274FF00008FB
:101B3000E08840EA080038432884A088A189084347
:101B4000618808432188084340F4006040EA09099D
:101B5000A5F81C9005B0BDE8F08F00210180418000
:101B60008180C180018141818181C1810721018200
:101B700070470021018041808180C1800221816005
:101B800000218181704721B1028842F04002028029
:101B900004E002884FF6BF731A400280704721B1FB
:101BA000828B42F48062828304E0828B4FF6FF33A3
:101BB0001A408283704730B5002400230C110125A0
:101BC000A540ABB21AB185881D43858002E08588A7
:101BD0009D43858030BD1AB183880B43838002E02A
:101BE00083888B4383807047818170470146888951
:101BF00070474FF6FF62914204D0028842F480722F
:101C0000028004E002884FF6FF631A4002807047AA
:101C100021B1828842F00402828004E082884FF67B
:101C2000FB731A408280704702884FF2FF731A409C
:101C3000028002880A4302807047018841F4805183
:101C40000180704721B1028842F40052028004E012
:101C500002884DF6FF731A4002807047024600204A
:101C6000012901D0108B00E0908A70470146088A54
:101C70007047B1F5804F04D1028842F4804202805F
:101C800004E002884BF6FF731A4002807047024658
:101C9000002013890B400BB1012000E000207047A9
:101CA000CA4302817047F0B5024600200024002399
:101CB000002501F00F070126BE40B4B20B1101262A
:101CC0009E40B3B2968806EA03051689264016B1EF
:101CD0000DB1012000E00020F0BD10B5002201F0A0
:101CE0000F040123A3409AB2D343038110BD000027
:101CF0000030014000380040003C00407047704711
:101D0000704770477047754600F028F8AE460500EA
:101D10006946534620F00700854618B020B5FFF706
:101D200063F8BDE820404FF000064FF000074FF089
:101D300000084FF0000B21F00701AC46ACE8C009E9
:101D4000ACE8C009ACE8C009ACE8C0098D467047F2
:101D50000446AFF300802046FEF731FA0048704792
:101D600018020020841D000800000020440000002C
:101D70006C010008C81D0008440000203408000061
:101D8000880100080000000000A24A0400000000D2
:101D9000000000000102030406070809000000001B
:101DA0000000000000000000000000000000000033
:101DB000000000000000000001020304010203040F
:081DC0000607080902040608E9
:0400000508000131BD
:00000001FF
